:100000000C9458090C94D50D0C94AA0D0C947F0DEA
:100010000C940A0D0C94950C0C94200C0C94AB0BC6
:100020000C9482090C9482090C9482090C94820924
:100030000C9482090C9482090C9482090C94820914
:100040000C9482090C9482090C947D170C948209FB
:100050000C94E7340C94BD340C9482090C948209FE
:100060000C9482090C9482090C94222C0C94820921
:100070000C9487340C945D340C9482090C9482099E
:100080000C9482090C9482090C94820917161A1692
:100090000D161116311631161E16221628162C169C
:1000A00008000000BE922449123EABAAAA2ABECD87
:1000B000CCCC4C3E00000080BEABAAAAAA3E0000F9
:1000C0000000BF000000803F0000000000084178F1
:1000D000D3BB4387D1133D190E3CC3BD4282AD2B28
:1000E0003E68EC8276BED98FE1A93E4C80EFFFBE20
:1000F00001C4FF7F3F000000000007634236B79B4A
:10010000D8A71A39685618AEBAAB558C1D3CB7CC77
:100110005763BD6DEDFD753EF6177231BF000000EF
:10012000803F00407A10F35A00A0724E1809001068
:10013000A5D4E80000E87648170000E40B5402005C
:1001400000CA9A3B000000E1F50500008096980087
:10015000000040420F000000A086010000001027B0
:1001600000000000E8030000000064000000000040
:100170000A00000000000100000000002C76D88872
:10018000DC674F0823DFC1DFAE59E1B1B796E5E385
:10019000E453C63AE651997696E8E6C28426EB899E
:1001A0008C9B62ED407C6FFCEFBC9C9F40F2BAA53B
:1001B0006FA5F490055A2AF75C936B6CF9676DC1D3
:1001C0001BFCE0E40D47FEF520E6B500D0ED902ED7
:1001D0000300943577050080841E080000204E0A35
:1001E000000000C80C333333330F986E1283114173
:1001F000EF8D2114893BE65516CFFEE6DB18D1843E
:100200004B381BF77C1D901DA4BBE4242032847264
:100210005E228100C9F124ECA1E53D270000200009
:100220002300260029000404040404040404020238
:100230000202020202020303030303030303010198
:1002400001010101010101020408102040800102A6
:1002500004081020408001020408102040800102A0
:10026000040810204080434C4F5345204F4B0D0A4B
:10027000004552524F520D0A00414C5245414459DB
:1002800020434F4E4E4543540D0A00434F4E4E45BA
:100290004354204641494C0D0A00434F4E4E4543BE
:1002A00054204F4B0D0A00222C00222C22002254F5
:1002B0004350002B43495053544152543D002B436B
:1002C000495053534C3D002B434950434C4F5345E9
:1002D0003D000D0A44415441204143434550543AA6
:1002E000003E002B43495053454E443D002B4349AB
:1002F0005052584745543A002B43495052584745AD
:10030000543D322C002B43474154543D30002B4385
:10031000495053485554002B43494653523B4530AE
:10032000000D0A2B43474154543A002B4347415494
:10033000543F004552524F520D0A004F4B0D0A00D8
:100340002B43494653523B4530005573696E672035
:100350004D6F64756C617253656E736F7273204C70
:100360006962726172792076657273696F6E2000BE
:10037000206F6E204C6F6767657220004E6F77208C
:1003800072756E6E696E67200000002200250028DD
:10039000002B000000000004030807000000010219
:1003A00000090A000000000000000000000000003A
:1003B0000000003A3030003A3030005A003A303015
:1003C0000030003A3030004461746520616E642072
:1003D00054696D6520696E205554430052657375EC
:1003E0006C7420555549443A00526573756C7420FD
:1003F000556E69743A005661726961626C65204E8F
:10040000616D653A0053656E736F72204E616D6564
:100410003A0044617461204C6F67676572204669D9
:100420006C653A200044617461204C6F67676572A7
:100430003A20002C002C00446174612077696C6CB8
:10044000206E6F74206265207361766564210045BB
:1004500072726F723A205344206361726420666145
:10046000696C656420746F20696E697469616C6978
:100470007A65206F72206973206D697373696E6786
:100480002E005375636365737366756C6C792063B6
:100490006F6E6E656374656420746F2053442043EF
:1004A000617264207769746820636172642F736C71
:1004B0006176652073656C656374206F6E2070696A
:1004C0006E20004E4F5420494E534552544544002F
:1004D00053494D2050554B0053494D2050494E0033
:1004E0005245414459000D0A2B4350494E3A002BC6
:1004F0004350494E3F0045300026465A002B495094
:10050000523D00002C22494E495449414C22002CB6
:1005100022434C4F53494E4722002C22434C4F5309
:10052000454422002C22434F4E4E4543544544221D
:10053000002B4349505354415455533D002B4349DC
:100540005052584745543A002B434950525847455A
:10055000543D342C002657002B4353434C4B3D3025
:10056000002B4943463D332C33002B4946433D3055
:100570002C30002B4950523D300026465A4530263B
:10058000570049000D0A2B43495053534C3A002B56
:1005900043495053534C3D3F002B4346554E3D314C
:1005A0002C31002B4346554E3D30002657002B433F
:1005B0004C54533D31004E4F524D414C20504F57FB
:1005C000455220444F574E002B43504F57443D3126
:1005D0000022002B4350494E3D22000D0A2B494377
:1005E0004349443A002B4943434944000D0A002B38
:1005F00047534E000D0A2B434F50533A002B434FA5
:1006000050533F000D0A2B4353513A002B43535193
:10061000000D0A2B435245473A002B435245473FB2
:10062000002B43444E534346473D22382E382E3844
:100630002E38222C22382E382E342E3422002B43F2
:10064000494653523B4530002B434949435200220F
:1006500000222C2200222C22002B435354543D22F2
:10066000002B43495052584745543D31002B4349D4
:10067000505153454E443D31002B4349504D555840
:100680003D31002B43474154543D31002B534150E1
:1006900042523D322C31002B53415042523D312CBD
:1006A00031002B43474143543D312C31002B43470C
:1006B00044434F4E543D312C224950222C22002BD2
:1006C00053415042523D332C312C22505744222C5E
:1006D00022002B53415042523D332C312C22555392
:1006E0004552222C22002B53415042523D332C3193
:1006F0002C2241504E222C22002B53415042523D7D
:10070000332C312C22436F6E74797065222C224772
:1007100050525322001F1C1F1E1F1E1F1F1E1F1E74
:100720001F00002100240027002A007D007B0050CC
:10073000696E004932435F3078363800455350388F
:1007400032363600584265650048692100584265D6
:100750006500584265650050696E004932435F305C
:100760007800486921005842656500436C6F636BEF
:1007700020616C72656164792077697468696E20A4
:1007800035207365636F6E6473206F662074696DC6
:10079000652E00436C6F636B2073796E6365642113
:1007A000004261642074696D657374616D702C2002
:1007B000736B697070696E672073796E632E005871
:1007C000426565005842656500200020697320007D
:1007D000207265706F72747320002000206973208E
:1007E00063616C63756C6174656420746F2062650D
:1007F00020007D002C20002200223A2000222C2004
:1008000000222C202274696D657374616D70223A28
:100810002022002273616D706C696E675F6665618E
:1008200074757265223A2022007B000D0A436F6EB8
:1008300074656E742D547970653A206170706C69BE
:10084000636174696F6E2F6A736F6E0D0A0D0A0013
:100850000D0A436F6E74656E742D4C656E67746817
:100860003A20000D0A544F4B454E3A20000D0A48DD
:100870006F73743A20646174612E656E7669726F6D
:100880006469792E6F726700504F5354202F617046
:10089000692F646174612D73747265616D2F2048D6
:1008A0005454502F312E3100005EBCE2613FDD8395
:1008B000C29C7E20A3FD1F41009D23BE46DB65F840
:1008C0008C11AF32CA57E974202D2D2052657370F8
:1008D0006F6E736520436F6465202D2D20000A2004
:1008E0002D2D20556E61626C6520746F20457374E8
:1008F00061626C69736820436F6E6E656374696FC3
:100900006E20746F20456E7669726F444959204499
:1009100061746120506F7274616C202D2D20000A6B
:10092000205C2F2D2D2D2D20506F7374205265715A
:100930007565737420746F20456E7669726F4449D3
:1009400059202D2D2D2D5C2F20004E6F206D6F64B2
:10095000656D2061747461636865642C20646174E2
:10096000612063616E6E6F742062652073656E74C2
:10097000206F757421002D2D2D2D2D2D2D2D2D2D1C
:100980002D2D2D2D2D2D2D2D2D2D2D2D2D2D2D2D97
:100990002D2D2D2D2D2D2D2D2D2D2D2D2D2D2D2D87
:1009A0000A002D2D2D2D2D2D2D2D2D2D2D2D2D2DC7
:1009B0002D2D2D2D2D2D2D2D2D2D2D2D2D2D2D2D67
:1009C0002D2D2D2D2D2D2D2D2D2D2D2D00556E61E7
:1009D000626C6520746F20637265617465206120AC
:1009E00066696C6520746F2073617665206461743C
:1009F0006120746F2100446174612077696C6C2000
:100A00006265207361766564206173200053656EB2
:100A1000736F727320616E64206461746120666913
:100A20006C6520686164206E6F74206265656E205D
:100A300073657420757021202053657474696E6726
:100A4000207468656D207570206E6F772E00584297
:100A50006565005175656374656C204D43363000E3
:100A60005175656374656C204D393500517565634A
:100A700074656C2042473936004E656F7761792086
:100A80004D35393000455350383236360054656C98
:100A90006974204C453836360044696769205842ED
:100AA000656533E284A22043656C6C756C617220CD
:100AB0004C54452043415420310044696769205813
:100AC000426565C2AE2043656C6C756C6172204CEA
:100AD0005445204361742031004C4953412D553217
:100AE00000534152412D47330058426565C2AE2044
:100AF00043656C6C756C6172203347005341524101
:100B00002D55320044696769205842656533E28497
:100B1000A22043656C6C756C6172204E422D496F4A
:100B200054005842656533E284A22043656C6C75BD
:100B30006C6172204C54452D4D00534152412D5251
:100B4000340053494D436F6D2053494D39303000C7
:100B500053494D436F6D2053494D38303000584252
:100B60006565000A205C2F2D2D2D2D204C696E65AA
:100B700020536176656420746F2053442043617272
:100B800064202D2D2D2D5C2F2000556E61626C652B
:100B900020746F20777269746520746F205344202D
:100BA0006361726421002D2D2D2D2D2D2D2D2D2DC8
:100BB0002D2D2D2D2D2D2D2D2D2D2D2D2D2D2D2D65
:100BC0002D2D2D2D2D2D2D2D2D2D2D2D2D2D2D2D55
:100BD0000045786974696E672074657374696E671F
:100BE000206D6F646500202020202D2D2D2D2D2DB2
:100BF0002D2D2D2D2D2D2D2D2D2D2D2D2D2D2D2D25
:100C00002D00202020202D2D2D2D2D2D2D2D2D2D75
:100C10002D2D2D2D2D2D2D2D2D2D2D2D2D004375D3
:100C20007272656E74206C6F676765722074696D8F
:100C30006520697320002D2D2D2D2D2D2D2D2D2D71
:100C40002D2D2D2D2D2D2D2D2D2D2D2D2D2D2D2DD4
:100C50002D2D2D2D2D2D2D2D2D2D2D2D2D2D2D2DC4
:100C600000456E746572696E672073656E736F728E
:100C70002074657374696E67206D6F6465002D2D37
:100C80002D2D2D2D2D2D2D2D2D2D2D2D2D2D2D2D94
:100C90002D2D2D2D2D2D2D2D2D2D2D2D2D2D2D2D84
:100CA0002D2D2D2D2D2D2D2D002D2D2D2D2D2D2DA1
:100CB0002D2D2D2D2D2D2D2D2D2D2D2D2D2D2D2D64
:100CC0002D2D2D2D2D2D2D2D2D2D2D2D2D2D2D2D54
:100CD0002D2D2D0A004C6F67676572207365747542
:100CE000702066696E6973686564210020617420F4
:100CF000616E792074696D6520746F20656E74650E
:100D0000722073656E736F722074657374696E6799
:100D1000206D6F64652E0050757368206275747461
:100D20006F6E206F6E2070696E2000556E61626C70
:100D30006520746F20637265617465206120666947
:100D40006C6520746F207361766520646174612026
:100D5000746F2100446174612077696C6C20626556
:100D60002073617665642061732000536574746933
:100D70006E672075702073656E736F72732E2E2EE2
:100D800000206172652063616C63756C61746564D9
:100D90002E002073656E736F727320616E64200085
:100DA00020636F6D652066726F6D20002076617222
:100DB0006961626C65732C206F662077686963686F
:100DC000200054686973206C6F67676572206861E2
:100DD000732061207661726961626C652061727254
:100DE000617920776974682000206D696E7574657B
:100DF00020696E74657276616C732E0020746F20AA
:100E00007265636F72642061742000536574746945
:100E10006E67207570206C6F676765722000437580
:100E20007272656E74205254432074696D65206936
:100E3000733A20002D2D2D2D2D2D2D2D2D2D2D2DC9
:100E40002D2D2D2D2D2D2D2D2D2D2D2D2D2D2D2DD2
:100E50002D2D2D2D2D2D2D2D2D2D2D2D2D2D0A0012
:100E60002D2D2D2D2D2D2D2D2D2D2D2D2D2D2D2DB2
:100E70002D2D2D2D2D2D2D2D2D2D2D2D2D2D2D2DA2
:100E80002D2D2D2D2D2D2D2D2D2D00556E61626CAE
:100E90006520746F206372656174652061206669E6
:100EA0006C6520746F2073617665206461746120C5
:100EB000746F2100446174612077696C6C206265F5
:100EC000207361766564206173200053656E736FD3
:100ED000727320616E6420646174612066696C6560
:100EE00020686164206E6F74206265656E20736592
:100EF0007420757021202053657474696E672074A6
:100F000068656D207570206E6F772E004461746582
:100F100020616E642054696D6520696E20555443CC
:100F200000526573756C7420555549443A005265FA
:100F300073756C7420556E69743A005661726961FC
:100F4000626C65204E616D653A0053656E736F7219
:100F5000204E616D653A0053616D706C696E67205B
:100F60004665617475726520555549443A200044C0
:100F7000617461204C6F676765722046696C653AE1
:100F8000200044617461204C6F676765723A2000ED
:100F900043757272656E74206D6F64656D20736940
:100FA000676E616C2069732000202020202D2D2D7C
:100FB0002D2D2D2D2D2D2D2D2D2D2D2D2D2D2D2D61
:100FC0002D2D2D2D00202020202D2D2D2D2D2D2DB2
:100FD0002D2D2D2D2D2D2D2D2D2D2D2D2D2D2D2D41
:100FE0000043757272656E74206C6F67676572205E
:100FF00074696D6520697320002D2D2D2D2D2D2DEB
:101000002D2D2D2D2D2D2D2D2D2D2D2D2D2D2D2D10
:101010002D2D2D2D2D2D2D2D2D2D2D2D2D2D2D2D00
:101020002D2D2D00456E746572696E672073656E97
:10103000736F722074657374696E67206D6F646579
:10104000002D2D2D2D2D2D2D2D2D2D2D2D2D2D2DFD
:101050002D2D2D2D2D2D2D2D2D2D2D2D2D2D2D2DC0
:101060002D2D2D2D2D2D2D2D2D2D2D002D2D2D2DDD
:101070002D2D2D2D2D2D2D2D2D2D2D2D2D2D2D2DA0
:101080002D2D2D2D2D2D2D2D2D2D2D2D2D2D2D2D90
:101090002D2D2D2D2D2D0A004C6F67676572207345
:1010A000657475702066696E6973686564210020D7
:1010B000617420616E792074696D6520746F20659C
:1010C0006E7465722073656E736F722074657374CD
:1010D000696E67206D6F64652E00507573682062BD
:1010E0007574746F6E206F6E2070696E2000556E7F
:1010F00061626C6520746F20637265617465206144
:101100002066696C6520746F207361766520646168
:10111000746120746F2100446174612077696C6C84
:1011200020626520736176656420617320005468D5
:101130006973206D61792074616B6520757020740E
:101140006F2074776F206D696E757465732100412F
:101150007474656D7074696E6720746F2073796E36
:101160006368726F6E697A652052544320776974A0
:1011700068204E4953540020666F7220696E746572
:10118000726E657420636F6E6E65637469766974E0
:10119000792E0054686973206C6F676765722069E7
:1011A00073207469656420746F2061200053657436
:1011B00074696E672075702073656E736F72732E1D
:1011C0002E2E00206172652063616C63756C617402
:1011D00065642E002073656E736F727320616E6498
:1011E000200020636F6D652066726F6D2000207691
:1011F00061726961626C65732C206F662077686923
:101200006368200054686973206C6F67676572209B
:101210006861732061207661726961626C6520612A
:101220007272617920776974682000206D696E752B
:10123000746520696E74657276616C732E0020741B
:101240006F207265636F726420617420005365744F
:1012500074696E67207570206C6F67676572200017
:1012600043757272656E74205254432074696D65C3
:101270002069733A2000434C4F5345440D0A000D3A
:101280000A2B43495052584745543A000001020383
:101290000405060700010203040506070001020316
:1012A0000405060700010203040506077678F37EAD
:1012B00011241FBECFEFD0E4DEBFCDBF17E0A0E00A
:1012C000B1E0EEEBF8E101E00BBF02C007900D9238
:1012D000A43BB107D9F72FE0A4EBB7E001C01D9202
:1012E000A732B207E1F719E0C7E5D9E004C02197BA
:1012F000FE010E947386C635D107C9F70E94FB7EA6
:101300000C94528C0C940000DC01ED91FC91068849
:10131000F789E02D099591E0811101C090E0892FB6
:101320000895CF93DF93EC01E881F9810084F18582
:10133000E02D0995892B11F48D8901C081E0DF91A1
:10134000CF910895DC011C96ED91FC911D9784814D
:101350009581DC01ED91FC910680F781E02D0994E7
:101360008FEF9FEF0895CF93DF931F92CDB7DEB736
:10137000DC01ED91FC910288F389E02D41E050E021
:10138000BE016F5F7F4F0995019719F4898190E045
:1013900002C08FEF9FEF0F90DF91CF910895CF9311
:1013A000DF931F92CDB7DEB76983DC01ED91FC912D
:1013B0000280F381E02D41E050E0BE016F5F7F4F7E
:1013C00009950F90DF91CF91089580E0089580E016
:1013D000089580E00895DC01ED91FC910190F08189
:1013E000E02D099480E090E008958F929F92AF9253
:1013F000BF92EF92FF920F931F93CF93DF93EC0175
:1014000060E070E0CB010E9437178E01095E1E4F2D
:101410007E0127EEE21A2EEFF20AD8018D919C91FF
:10142000F70120813181821B930B97FF3FC081150B
:10143000FFEF9F0759F50E94711789889A88AB883A
:10144000BC88DC01CB0188199909AA09BB098B3F2B
:101450009105A105B10540F081E08E8B0E947117C6
:10146000698B7A8B8B8B9C8B8C859D85DC01ED91B8
:10147000FC910284F385E02D0995F801808191812A
:10148000D7012D913C91821B930B97FD93952F854E
:101490003889820F931FDF91CF911F910F91FF9099
:1014A000EF90BF90AF909F908F900895009779F73D
:1014B000C2CF8F929F92AF92BF92CF92DF92EF9264
:1014C000FF92CF93DF93EC014A015B010E947117F9
:1014D0006B017C010E947117DC01CB018C199D0905
:1014E000AE09BF0988159905AA05BB0580F4E881F6
:1014F000F98104A0F5A1E02DCE010995811108C064
:101500006AEF70E080E090E00E943717E3CF80E060
:10151000DF91CF91FF90EF90DF90CF90BF90AF9091
:101520009F908F9008956115710579F0FB010190EE
:101530000020E9F73197AF01461B570BDC01ED9115
:10154000FC910280F381E02D099480E090E0089501
:101550000F931F93CF93DF93EC0160E070E0CB011A
:101560000E9437174E8567EC72E08C859D850E943E
:10157000C4141D8A00E010E020E030E043E353E0B3
:101580006BE373E08C859D850E945978FE01E75ED0
:10159000FE4F11821082C95EDE4F19821882DF91E0
:1015A000CF911F910F9108958F929F92AF92BF920A
:1015B000CF92DF92EF92FF920F931F93CF93DF931F
:1015C0004C016B017A01DC01ED91FC910488F589F5
:1015D000E02D099560E070E0CB010E943717F4011F
:1015E000E75EFE4F11821082329711821082F40161
:1015F000B684C485D58561EA76E08A819B810E94A4
:10160000041B6EEB72E08A819B810E94261B40E0E6
:1016100050E0BA018A819B810E9486616AEA76E085
:101620008A819B810E94041B8C819D81DC01ED914C
:10163000FC910680F781E02D099560E070E0CB0118
:101640000E94371700E010E020E030E043E353E071
:101650006BE373E0CE010E94597861EA76E08A81FB
:101660009B810E94041B63EB72E08A819B810E9434
:10167000261B6B2D8A819B810E947F616CE28A818F
:101680009B810E94FD1A6EEA72E08A819B810E9412
:10169000261B6AEA72E08A819B810E94261BB601A2
:1016A0008A819B810E94041B67EA72E08A819B8188
:1016B0000E94261BA70160E070E02AE08A819B81DE
:1016C0000E949E1A6AEA76E08A819B810E94041B2E
:1016D0008C819D81DC01ED91FC910680F781E02DEC
:1016E000099560E070E0CB010E94371786E6A82ECE
:1016F00082E0B82E91E7C92E92E0D92E29E7E22E9A
:1017000022E0F22E0BE812E02AE932E048EF54E240
:1017100061E070E0CE010E94077891E0813009F02D
:1017200090E0F401958B892F90E0DF91CF911F918C
:101730000F91FF90EF90DF90CF90BF90AF909F9070
:101740008F9008950C9425810C9425810C9425810B
:101750000895089508951F920F920FB60F921124C5
:101760000BB60F922F933F934F935F936F937F939B
:101770008F939F93AF93BF93CF93EF93FF9329B131
:10178000C091D50E80911D0F9091190F322F309579
:1017900093238223892B90917300C227C923C823E6
:1017A0002093D50ECC23C1F1C0FF05C0E091D60E29
:1017B000F091D70E0995C1FF05C0E091D80EF091C8
:1017C000D90E0995C2FF05C0E091DA0EF091DB0E4B
:1017D0000995C3FF05C0E091DC0EF091DD0E09957F
:1017E000C4FF05C0E091DE0EF091DF0E0995C5FF44
:1017F00005C0E091E00EF091E10E0995C6FF05C02D
:10180000E091E20EF091E30E0995C7FF05C0E0916B
:10181000E40EF091E50E0995FF91EF91CF91BF9104
:10182000AF919F918F917F916F915F914F913F9178
:101830002F910F900BBE0F900FBE0F901F90189519
:101840001F920F920FB60F9211240BB60F922F9387
:101850003F934F935F936F937F938F939F93AF9338
:10186000BF93CF93EF93FF9326B1C091E60E809183
:101870001E0F90911A0F322F309593238223892BBC
:1018800090916D00C227C923C8232093E60ECC2374
:10189000C1F1C0FF05C0E091E70EF091E80E099597
:1018A000C1FF05C0E091E90EF091EA0E0995C2FF73
:1018B00005C0E091EB0EF091EC0E0995C3FF05C059
:1018C000E091ED0EF091EE0E0995C4FF05C0E09198
:1018D000EF0EF091F00E0995C5FF05C0E091F10EF5
:1018E000F091F20E0995C6FF05C0E091F30EF0915C
:1018F000F40E0995C7FF05C0E091F50EF091F60EC4
:101900000995FF91EF91CF91BF91AF919F918F91E9
:101910007F916F915F914F913F912F910F900BBEEF
:101920000F900FBE0F901F9018951F920F920FB639
:101930000F9211240BB60F922F933F934F935F9307
:101940006F937F938F939F93AF93BF93CF93EF93B7
:10195000FF9323B1C091F70E80911F0F90911B0F41
:10196000322F309593238223892B90916C00C227CC
:10197000C923C8232093F70ECC23C1F1C0FF05C0B3
:10198000E091F80EF091F90E0995C1FF05C0E091C4
:10199000FA0EF091FB0E0995C2FF05C0E091FC0E16
:1019A000F091FD0E0995C3FF05C0E091FE0EF09188
:1019B000FF0E0995C4FF05C0E091000FF091010FE3
:1019C0000995C5FF05C0E091020FF091030F09953D
:1019D000C6FF05C0E091040FF091050F0995C7FF00
:1019E00005C0E091060FF091070F0995FF91EF9167
:1019F000CF91BF91AF919F918F917F916F915F91A7
:101A00004F913F912F910F900BBE0F900FBE0F90F3
:101A10001F9018951F920F920FB60F9211240BB6BC
:101A20000F922F933F934F935F936F937F938F9377
:101A30009F93AF93BF93CF93EF93FF9320B1C09148
:101A4000080F8091200F90911C0F322F3095932317
:101A50008223892B90916B00C227C923C82320932E
:101A6000080FCC23C1F1C0FF05C0E091090FF09130
:101A70000A0F0995C1FF05C0E0910B0FF0910C0F03
:101A80000995C2FF05C0E0910D0FF0910E0F099569
:101A9000C3FF05C0E0910F0FF091100F0995C4FF2F
:101AA00005C0E091110FF091120F0995C5FF05C017
:101AB000E091130FF091140F0995C6FF05C0E09156
:101AC000150FF091160F0995C7FF05C0E091170F8C
:101AD000F091180F0995FF91EF91CF91BF91AF91C0
:101AE0009F918F917F916F915F914F913F912F9136
:101AF0000F900BBE0F900FBE0F901F9018951F9266
:101B00000F920FB60F9211240BB60F922F933F93A3
:101B10004F935F936F937F938F939F93AF93BF93F5
:101B2000EF93FF93E091D30EF091D40E0995FF91BE
:101B3000EF91BF91AF919F918F917F916F915F9145
:101B40004F913F912F910F900BBE0F900FBE0F90B2
:101B50001F9018951F920F920FB60F9211240BB67B
:101B60000F922F933F934F935F936F937F938F9336
:101B70009F93AF93BF93EF93FF93E091D10EF091BA
:101B8000D20E0995FF91EF91BF91AF919F918F91E7
:101B90007F916F915F914F913F912F910F900BBE6D
:101BA0000F900FBE0F901F9018951F920F920FB6B7
:101BB0000F9211240BB60F922F933F934F935F9385
:101BC0006F937F938F939F93AF93BF93EF93FF9305
:101BD000E091CF0EF091D00E0995FF91EF91BF915A
:101BE000AF919F918F917F916F915F914F913F91B5
:101BF0002F910F900BBE0F900FBE0F901F90189556
:101C00002F923F924F925F926F927F928F929F920C
:101C1000AF92BF92CF92DF92EF92FF920F931F93FA
:101C2000CF93DF93CDB7DEB761970FB6F894DEBFE1
:101C30000FBECDBF3C011B015D874C8760E070E0AB
:101C4000CB010E943717D3011C968D919C911D9753
:101C5000DC01ED91FC910284F385E02D0995412C86
:101C6000512CF301E95EFE4FFB87EA87C301875ED3
:101C70009E4F98878F83D3015796B98BA88BEC859D
:101C8000FD854E165F0608F045C1AA85BB858D917E
:101C90009C91EF81F88520813181821B930B97FD08
:101CA0009395CC84DD84C418D5088C159D0508F463
:101CB0006C01C114D104C1F156014101AF81B88555
:101CC000ED90FC90EA85FB85808191818E199F09BA
:101CD00097FD9395009729F42C0C3D1C4C0C5D1C32
:101CE000CECF00E011E00E191F09A016B1060CF4CA
:101CF0008501801791070CF48C01688979896E0D34
:101D00007F1DA801C4010E94F38BE00EF11EFF2489
:101D1000AF81B885ED92FC92A01AB10A800E911E97
:101D2000A114B104C9F2CACF0E947117F30101894D
:101D3000128923893489DC01CB01801B910BA20B12
:101D4000B30B8B3F9105A105B10558F021E0268B1F
:101D50000E947117D30151966D937D938D939C933F
:101D60005497F30184859585DC01ED91FC91028403
:101D7000F385E02D0995F30187859089009709F493
:101D8000C9C0F685F987AF81B8852D913C91EA8568
:101D9000FB8540815181241B350B121613060CF074
:101DA0003395D3011C96ED90FC901D97215031097D
:101DB0008217930708F49C01498568EF72E0C70118
:101DC0000E94F06100E010E020E030E043E353E0E7
:101DD0006DEE72E0C7010E945978813009F08CC025
:101DE0006CE2C7010E9455756CE2C7010E945575EF
:101DF000F701648175814CE2CE0101960E9407765D
:101E0000CE0101960E94C7174B015C017F876E8748
:101E1000CE0101960E94D8196701F985CF0ED11C19
:101E2000CF0ED11CD60116960D911C911797F70174
:101E3000648175814AE0CE0101960E940776CE0149
:101E400001960E94C717D80150967C936E931F97F6
:101E5000CE0101960E94D81900E010E0EE85FF85C2
:101E60000E171F07E8F5D70114968D919C911597D1
:101E7000DC01ED91FC910084F185E02D0995892B21
:101E800031F460E070E0CB010E943717ECCFF7012E
:101E900084819581DC01ED91FC910284F385E02D34
:101EA0000995F60166817781FB01E95EFE4F40816D
:101EB00051819A012F5F3F4F3327DB01A75EBE4F51
:101EC0000D90BC91A02D2A173B0739F0DB01A40F20
:101ED000B51F57968C93318320830F5F1F4FBECF62
:101EE00000E010E020E030E043E353E06BE373E018
:101EF000C7010E94597802C0812C912CD3011F96F2
:101F00008D919C9150978819990950969C938E9326
:101F10001F97B5CEC20161960FB6F894DEBF0FBE13
:101F2000CDBFDF91CF911F910F91FF90EF90DF9088
:101F3000CF90BF90AF909F908F907F906F905F9069
:101F40004F903F902F900895AF92BF92CF92DF9223
:101F5000EF92FF920F931F93CF93DF9300D000D0A7
:101F600000D0CDB7DEB78C015B016A0160E070E0A4
:101F7000CB010E943717D8011C968D919C911D971B
:101F8000DC01ED91FC910284F385E02D0995F801C7
:101F9000E484F5849601468563EE72E0C7010E94F1
:101FA000F06100E010E020E030E043E353E061EE58
:101FB00072E0C7010E945978813019F0E12CF12CB0
:101FC0003AC0D70114968D919C911597DC01ED9143
:101FD000FC910280F381E02DA601B5010995F7017E
:101FE00084819581DC01ED91FC910680F781E02DE3
:101FF000099500E010E020E030E043E353E062EDBB
:1020000072E0C7010E9459788130C1F66CE2C701C5
:102010000E945575F701648175814AE0CE010196F1
:102020000E940776CE0101960E94C7177B01CE0160
:1020300001960E94D819C70126960FB6F894DEBF04
:102040000FBECDBFDF91CF911F910F91FF90EF9009
:10205000DF90CF90BF90AF900895AF92BF92CF9294
:10206000DF92EF92FF920F931F93CF93DF93CDB741
:10207000DEB72E970FB6F894DEBF0FBECDBF8C0132
:10208000DB01ED91FC9102A8F3A9E02DCE010996A8
:102090000995DE01119688E0FD0111928A95E9F714
:1020A0006D857E8549855A85D12C20E030E0EAE0B7
:1020B000CE2E8D2D90E08617970708F03FC0411572
:1020C0005105E9F0FA01E80FF91F80818E32C1F461
:1020D0002F5F3F4F243031057CF18CEE92E0D80128
:1020E00011969C938E9312961C92129713961C92A3
:1020F000139714961C92149715961C922CC080E08E
:1021000090ED980F9A30A8F4F901EE0FFF1FEA0F37
:10211000FB1FA080B180CA9C7001CB9CF00C1124E5
:10212000082E000C990BC0978E0D9F1D9183808304
:1021300003C02330310511F0D394BBCF8F819D8133
:102140002B8139814CEE52E0F80151834083328378
:10215000238394838583CE0109960E94D819C801F0
:102160002E960FB6F894DEBF0FBECDBFDF91CF9194
:102170001F910F91FF90EF90DF90CF90BF90AF90A5
:102180000895CF92DF92EF92FF920F931F93CF9318
:10219000DF9300D000D000D0CDB7DEB77C018B013B
:1021A0006A016CEA76E0CE0101960E94141A60E1A1
:1021B00070E0CE0101960E948018D80112966C91B1
:1021C000CE0101960E94217464EA76E0CE01019668
:1021D0000E941819F8016381CE0101960E942174B2
:1021E00064EA76E0CE0101960E941819D80114968F
:1021F0006C91CE0101960E94217464EA76E0CE01D2
:1022000001960E941819F8016581CE0101960E947D
:10221000217469817A81D701ED91FC910088F1895F
:10222000E02DA601C70109958C01CE0101960E94FF
:10223000D819C80126960FB6F894DEBF0FBECDBFE1
:10224000DF91CF911F910F91FF90EF90DF90CF9092
:102250000895CF93DF93EC016CEA76E00E94141AA4
:10226000CE01DF91CF910895FC01848583FF0DC0DD
:1022700084A195A1A6A1B7A1448D558D668D778DBA
:10228000841B950BA60BB70B03C080E090E0DC012C
:10229000811520E89207A105B10520F08FEF9FE797
:1022A000A0E0B0E00895CF93DF931F92CDB7DEB7E3
:1022B000BE016F5F7F4F0C960E94505D019719F42D
:1022C000898190E002C08FEF9FEF0F90DF91CF9157
:1022D00008950C960C94026F61E087E10E948316CA
:1022E00061E089E00E94831681E0089560E087E163
:1022F0000E94831660E089E00E94831681E00895C1
:102300000C9425810C9425810C9425810C942581B5
:102310000C9425810C9425810C9425810C942581A5
:102320000C960C94295EAF92BF92CF92DF92EF92FF
:10233000FF920F931F93CF93DF93EC016EE073E056
:102340000E946F60A12CB12CC12CD12CE12CF12C5E
:1023500003E313E02BE333E040E65AEE60E070E085
:10236000CE010E940778813089F465E073E0CE01E8
:102370000E946F602BE333E040E65AEE60E070E0CD
:10238000CE010E94077891E0813009F090E0892F1A
:10239000DF91CF911F910F91FF90EF90DF90CF9041
:1023A000BF90AF900895FF920F931F93CF93DF9349
:1023B0001F92CDB7DEB78C01FC0180899189A2897B
:1023C000B3899C01AD0175E05695479537952795E2
:1023D0007A95D1F7F22FFF70FF2E11F0611114C022
:1023E000BE016F5F7F4FC8010E94505D813019F0C0
:1023F00080E090E01AC0F80180899189A289B389B0
:102400004F96A11DB11D04C08096A11DB11DF801FC
:10241000808B918BA28BB38BF801868197818796F5
:10242000F0E2FF9E800D911D11240F90DF91CF915E
:102430001F910F91FF900895FC018081811114C0BC
:1024400080E2DF01982F1D929A95E9F777836683E2
:10245000DB0115969C91903119F0903229F480E4BB
:10246000808381E08283089580E00895CF93DF9395
:10247000EC010E94026F1882DF91CF9108952F9294
:102480003F924F925F926F927F928F929F92AF9204
:10249000BF92CF92DF92EF92FF920F931F93CF9351
:1024A000DF93CDB7DEB7E6970FB6F894DEBF0FBE69
:1024B000CDBF7C018A012CAB19821A82DC018C9180
:1024C000811156C1FB018081807709F451C1FA0165
:1024D00080818F32C9F48F0181918F32E1F3DB016A
:1024E00016966D917C911797811104C0C7010E94C7
:1024F0001C1276C1CE0101960E941C12882309F499
:1025000037C1BE016F5F7F4FFE01F296FBABEAABB6
:10251000B0E27B2EF8019F012F5F3F4F8081803218
:1025200011F4F901F8CFFDA3ECA39F01A9014E1B03
:102530005F0B8901D9018D919D01882341F18F3273
:1025400021F4CF01840F951F1BC08C3509F410C1F5
:10255000982F977F923209F40BC18A3309F408C18E
:10256000982F9F7B9C3309F403C192EC980F923013
:1025700008F4FEC080528F35C8F2FAC02F3239F409
:102580008C01DC012D91CD012032C1F7F9CFDA01A8
:10259000AE0FBF1FAD014E1B5F0BEA17FB0759F0D3
:1025A0008E918E32B9F38032A9F34F3F510511F06D
:1025B0000CF0DEC002C040E050E05BA34AA3DE01A5
:1025C00097966D017D928AA99BA9A817B907D1F7A3
:1025D0009F01C9018E1B9F0BD901BD909D01BEE2D9
:1025E000BB16B9F3A0E28A2EB81499F399249394F8
:1025F000009709F0912C9A01215031092F01440EC6
:10260000551E2F3FAFEF3A0749F45EA0612CB7E0AB
:10261000BDAB812C212CB8E04B2E55C0D201BE9011
:102620002D01BEE2BB1689F321503109EACF5F01CB
:10263000A80EB91ED501BC91BEABB03209F474C06E
:10264000BE3209F045C08217930709F06DC0A6EDB0
:10265000BA2EBEA9BB0EA5E0AB1508F040C0B6EC83
:10266000BB2EBEA9BB0EA5E0AB15E0F5A5EABA2EC0
:10267000BB0EB2E0BB15B0F5AFEDBA2EAEA9BA0EE7
:10268000BDE5BB1578F1ADA98217930709F49CC08D
:10269000A815D8F1BEA8BFE9AB2EAB0CB9E1BA15AD
:1026A00068F1AB2DA052AEAB642833243394380CC0
:1026B0005601A80CB11C8EA8D5018C92A6E0A315DA
:1026C000A8F5832C0196841795070CF4B0CF31C080
:1026D000AEA9A23239F0AC3709F0B9CF03C0BD3290
:1026E00009F4BDCF8217930709F468C0ADA9A815F6
:1026F00060F0AFE5BA2EBFE5BEAB912CBFEBBB0ED1
:10270000A9E1AB1590F22428D0CFBDA9BA3009F4C5
:1027100064C0281739070CF460C0C901BAE0BDAB2A
:10272000B8E08B2EA0E14A2E912CCCCF532C832CD9
:10273000C9CF5EA28FA18032D9F0992039F026202E
:1027400011F4862D01C082E089A314C081E089A321
:102750008EA190E0D601A80FB91F2EE72C93E8E2D6
:10276000F0E0EC0FFD1FE80FF91F21E3208302C00A
:1027700080E036C0D8018C918823C1F021E0AE0101
:102780004F5D5F4FC7010E941470882389F380E278
:10279000F701DE01119601900D928A95E1F7C701CC
:1027A0000E943612BE016F5F7F4FB4CE2CA9AE01DE
:1027B0004F5D5F4FC7010E94147012C0BDA9BA30AF
:1027C00061F0AAE0ADAB04C0AA3039F0BAE0BDAB0D
:1027D000B8E08B2EA0E14A2E75CF5EA2912CAACF35
:1027E000E6960FB6F894DEBF0FBECDBFDF91CF9156
:1027F0001F910F91FF90EF90DF90CF90BF90AF901F
:102800009F908F907F906F905F904F903F902F9010
:1028100008953F924F925F926F927F928F929F9214
:10282000AF92BF92CF92DF92EF92FF920F931F93DE
:10283000CF93DF93CDB7DEB728970FB6F894DEBFFE
:102840000FBECDBF4C01DC0112968C9112978068AF
:1028500012968C9312971C964D905D906D907C9083
:102860001F971696AD90BC901797411451046104C0
:10287000710461F4D50118968D919D910D90BC91D4
:10288000A02D8D839E83AF83B88704C04D825E8266
:102890006F827886CD80DE80EF80F884BFEFCB1A20
:1028A000DB0AEB0AFB0AF501808D918DA28DB38DB9
:1028B0008C159D05AE05BF0528F482E0C82ED12CED
:1028C000E12CF12C9E012F5F3F4FB701A601C501FE
:1028D0000E945A6E87FD20C0882341F089819A8129
:1028E000AB81BC81892B8A2B8B2B51F08D819E81F2
:1028F000AF81B885C816D906EA06FB0679F60CC082
:102900000FEF1FEF2FEF3FE0B701A601C5010E94B7
:10291000E96D382E811102C0312C1BC041145104C5
:102920006104710451F097018601B301A201C50150
:102930000E94E96D811108C0EFCFD5011896CD92A4
:10294000DD92ED92FC921B97F401C486D586E68653
:10295000F786832D28960FB6F894DEBF0FBECDBF45
:10296000DF91CF911F910F91FF90EF90DF90CF906B
:10297000BF90AF909F908F907F906F905F904F909F
:102980003F90089508950895EF92FF921F93CF937B
:10299000DF93EC017B01142F61EA76E08A819B8151
:1029A0000E94041BB7018A819B810E94261B612F14
:1029B0008A819B810E947F616AEA76E08A819B819D
:1029C0000E94041B8C819D81DC01ED91FC910680AD
:1029D000F781E02D099560E070E0CB01DF91CF91A8
:1029E0001F91FF90EF900C94371708950895089564
:1029F0000895089508958F929F92AF92BF92EF929B
:102A0000FF920F931F93CF93DF9300D000D000D09D
:102A1000CDB7DEB77C016BE273E00E946F6000E02F
:102A200010E020E030E043E353E061E273E0C701EF
:102A30000E945978813089F5F701648175814AE0F7
:102A4000CE0101960E940776CE0101960E94C7171B
:102A50004B015C01CE0101960E94D81900E010E004
:102A600020E030E043E353E06BE373E0C7010E94F2
:102A700059788A94892889F467E173E0C7010E9434
:102A80006F6020E030E043E353E06BE373E0C701A5
:102A90000E94597891E0813009F090E0892F2696C4
:102AA0000FB6F894DEBF0FBECDBFDF91CF911F915F
:102AB0000F91FF90EF90BF90AF909F908F900895EF
:102AC0004F925F926F927F928F929F92AF92BF923E
:102AD000CF92DF92EF92FF920F931F93CF93DF93EA
:102AE000CDB7DEB762970FB6F894DEBF0FBECDBF8D
:102AF0003C012B0160E473E0C2010E946F606CEA4C
:102B000076E0CE010D960E94141A812C912CA12CF6
:102B1000B12CC12CD12C83E3E82E83E0F82E0BE3FB
:102B200013E09E01235F3F4F40E157E260E070E019
:102B3000C2010E942F766CEA76E0813021F0C30159
:102B40000E94141A44C0CE0107960E94141A66EA25
:102B500076E0CE0101960E94141AAE01495F5F4FE4
:102B6000BE016F5F7F4FCE010D960E948760CE0140
:102B700001960E94D819CE0107960E94D8196CEAD6
:102B800076E0CE0107960E94141A6AEA76E0CE013A
:102B900001960E94141AAE01495F5F4FBE016F5F3C
:102BA0007F4FCE010D960E948760CE0101960E9454
:102BB000D819CE0107960E94D819CE010D960E9411
:102BC000D217BE01635F7F4FC3010E94DD19CE01A2
:102BD0000D960E94D819C30162960FB6F894DEBF15
:102BE0000FBECDBFDF91CF911F910F91FF90EF905E
:102BF000DF90CF90BF90AF909F908F907F906F901D
:102C00005F904F90089590E0FC013197EA30F10514
:102C100040F5EA5BFF4F0C947386809180008F77BC
:102C200003C0809180008F7D80938000089584B5DB
:102C30008F7702C084B58F7D84BD08958091B000E8
:102C40008F7703C08091B0008F7D8093B00008958E
:102C5000809190008F7703C0809190008F7D80934A
:102C6000900008953FB7F89480910D0E90910E0E4C
:102C7000A0910F0EB091100E26B5A89B05C02F3F56
:102C800019F00196A11DB11D3FBFBA2FA92F982F92
:102C90008827820F911DA11DB11DBC01CD0143E00C
:102CA000660F771F881F991F4A95D1F708950895D9
:102CB0000E94E18BCF93DF93282F30E0F901ED568E
:102CC000FC4F8491F901EA5BFD4FD491F901EA5D73
:102CD000FD4FC491CC2391F081110E940316EC2F7B
:102CE000F0E0EE0FFF1FE45EFD4FA591B491EC9173
:102CF000ED2381E090E021F480E002C080E090E0EC
:102D0000DF91CF9108951F93CF93DF93282F30E069
:102D1000F901ED56FC4F8491F901EA5BFD4FD49126
:102D2000F901EA5DFD4FC491CC23C1F0162F81114A
:102D30000E940316EC2FF0E0EE0FFF1FE757FC4F49
:102D4000A591B4919FB7F894111104C08C91D095BE
:102D5000D82302C0EC91DE2BDC939FBFDF91CF9193
:102D60001F9108951092860E1092850E1092140EE7
:102D70001092130E1092CD0E81E08093CC0E109223
:102D8000C70E61E081E10E94831661E080E10E944C
:102D90008316E9EBF0E080818E7F808380818D7FD8
:102DA000808380E28093B80085E48093BC008BE848
:102DB00099E29093160E8093150E8CE899E2909309
:102DC000180E8093170E0895CF93DF9390E0FC01C7
:102DD000EA5BFD4F2491FC01EA5DFD4F849188235D
:102DE00061F190E0880F991FFC01EF5DF84FC591EC
:102DF000D491FC01E757FC4FA591B491611109C032
:102E00009FB7F8948881209582238883EC912E23A4
:102E10000BC0623061F49FB7F8948881322F3095EF
:102E200083238883EC912E2B2C939FBF06C08FB7F2
:102E3000F894E8812E2B28838FBFDF91CF910895DE
:102E4000883108F088518770806480937C0080917D
:102E50007A00806480937A0080917A0086FDFCCFAE
:102E6000809178002091790090E0922B08958F92C4
:102E70009F92AF92BF92CF92DF92EF92FF926B013F
:102E80007C010E9432164B015C01C114D104E104A3
:102E9000F104F1F00E943216DC01CB018819990986
:102EA000AA09BB09883E9340A105B10570F321E052
:102EB000C21AD108E108F10888EE880E83E0981E56
:102EC000A11CB11CC114D104E104F10419F7DDCF38
:102ED000FF90EF90DF90CF90BF90AF909F908F903A
:102EE00008952FB7F8946091090E70910A0E8091A1
:102EF0000B0E90910C0E2FBF08951F920F920FB6DC
:102F00000F9211242F933F938F939F93AF93BF936F
:102F10008091090E90910A0EA0910B0EB0910C0EAB
:102F20003091080E26E0230F2D3720F40296A11DC4
:102F3000B11D05C029E8230F0396A11DB11D2093E3
:102F4000080E8093090E90930A0EA0930B0EB09377
:102F50000C0E80910D0E90910E0EA0910F0EB0915F
:102F6000100E0196A11DB11D80930D0E90930E0EB3
:102F7000A0930F0EB093100EBF91AF919F918F91C0
:102F80003F912F910F900FBE0F901F901895FC014D
:102F900080819181009711F00C94CC8160E070E009
:102FA000CB010895AF92BF92CF92DF92EF92FF9242
:102FB0000F931F93CF93DF93DC01CD90DC9011979B
:102FC000C114D10409F443C01496CD91DC91159736
:102FD0002097E9F18C0176015701BFEFAB1ABB0ACC
:102FE000F7018081082E000C990B0E949484892B94
:102FF00011F07501F1CF2197CC0DDD1D8881082ED0
:10300000000C990B0E949484892B29F0CE15DF05C2
:1030100010F02197F3CFAE014F5F5F4F4E195F095C
:10302000D80115965C934E931497CE14DF0420F4C8
:10303000B701C6010E94F38BD801ED91FC91119765
:1030400014968D919C911597E80FF91F1082DF91CE
:10305000CF911F910F91FF90EF90DF90CF90BF9095
:10306000AF900895AF92BF92CF92DF92EF92FF920E
:103070000F931F93CF93DF937B018A01FB01448160
:1030800055814115510561F1FC01248135812115DE
:10309000310531F12417350718F10217130718F01D
:1030A000890101501109FC01A080B180C501DFEF49
:1030B000CFEF6501C00ED11EC816D906A0F0F701EA
:1030C000608171810E94388C009769F09C012A19F7
:1030D0003B090217130710F0D22FC32F0196ECCF34
:1030E0008FEF9FEF02C08D2F9C2FDF91CF911F910B
:1030F0000F91FF90EF90DF90CF90BF90AF90089529
:103100000F931F93CF93DF93EC01888199810097F0
:1031100029F02A813B812617370788F48B016F5FDE
:103120007F4F0E94FC8A009761F0998388831B83FC
:103130000A832C813D81232B11F4FC01108281E054
:1031400001C080E0DF91CF911F910F910895EF9220
:10315000FF920F931F93CF93DF936115710511F4C5
:1031600080E01EC08B01EC01CB010E94FA81009728
:10317000B1F02C813D817C01E20EF31EB701CE013E
:103180000E948018882361F3288139818C819D8178
:10319000B801820F931F0E94F381FD82EC8281E0CF
:1031A000DF91CF911F910F91FF90EF900895EF92D3
:1031B000FF920F931F93CF93DF936115710511F465
:1031C00080E01CC041155105C1F07B01EC018C81F0
:1031D0009D818A01080F191FB801CE010E94801835
:1031E000882371F3288139818C819D81B701820FF9
:1031F000931F0E94228C1D830C8381E0DF91CF916D
:103200001F910F91FF90EF900895CF93DF9300D01F
:10321000CDB7DEB769831A8241E050E0BE016F5F2F
:103220007F4F0E94D7180F900F90DF91CF91089594
:103230006115710551F0FB0101900020E9F731970C
:10324000AF01461B570B0C94D71880E00895FB0183
:1032500044815581608171810C94D718CF93DF939D
:10326000EC0188819981009711F00E9425811982D3
:1032700018821D821C821B821A82DF91CF910895D1
:10328000CF93DF93EC010E94A718811103C0CE01F8
:103290000E942E19CE01DF91CF910895CF93DF9335
:1032A000EC01FB0144815581608171810E94D71836
:1032B000811103C0CE010E942E19CE01DF91CF9162
:1032C0000895EF92FF920F931F93CF93DF93EC013A
:1032D0008B016115710551F0CB010E94FA817C01CF
:1032E000BC01CE010E948018811104C0CE010E9451
:1032F0002E1907C0FD82EC82B801888199810E9455
:10330000F381CE01DF91CF911F910F91FF90EF904C
:103310000895EF92FF920F931F93CF93DF93EC01E9
:103320007B018A01BA010E948018811104C0CE017C
:103330000E942E1907C01D830C83B70188819981D3
:103340000E94228CCE01DF91CF911F910F91FF90AF
:10335000EF900895CF93DF93EC016115710559F05B
:10336000FB0101900020E9F73197AF01461B570B95
:103370000E94891902C00E942E19CE01DF91CF91BF
:103380000895CF93DF93EC01FB018617970761F057
:10339000608171816115710529F0448155810E9418
:1033A000891902C00E942E19CE01DF91CF91089594
:1033B000FC01808191810C942581DC01FB01119637
:1033C0001C921E9213961C921E92129715961C9296
:1033D0001E9214978081918111969C938E93828185
:1033E000938113969C938E93129784819581159661
:1033F0009C938E93149711821082138212821582ED
:1034000014820895FC0111821082138212821582A7
:1034100014820C946119FC011182108213821282B1
:10342000158214820C94C119FC011182108213823E
:103430001282158214826115710551F0FB01019011
:103440000020E9F73197AF01461B570B0C948919FF
:103450000895BF92CF92DF92EF92FF920F931F9346
:10346000CF93DF937C016B018A01E90124173507B3
:1034700020F4812F8901C42FD82F6CEA76E0C70190
:103480000E94141AD60114968D919C9115970817D5
:103490001907C8F48C179D0708F4EC01D601ED91CB
:1034A000FC911197EC0FFD1FB08010826D917C9103
:1034B000600F711FC7010E94AA19D601ED91FC91FE
:1034C000EC0FFD1FB082C701DF91CF911F910F91CB
:1034D000FF90EF90DF90CF90BF9008950F931F93D0
:1034E000CF93DF93EC010E947117688779878A87F1
:1034F0009B87E881F9810284F385E02DCE0109954F
:1035000097FF17C00E947117088519852A853B858A
:10351000DC01CB01801B910BA20BB30B0C811D8135
:103520002E813F8180179107A207B30710F38FEF19
:103530009FEFDF91CF911F910F9108958F929F92EE
:10354000AF92BF92EF92FF920F931F93CF93DF93AF
:10355000CDB7DEB7A1970FB6F894DEBF0FBECDBFD3
:103560007C01FA01CB0119A2223008F42AE08E0175
:103570000F5D1F4F822E912CA12CB12CBF01A501F4
:1035800094010E943286F901CA01015011096A3082
:1035900014F4605D01C0695CD8016C93232B242B6B
:1035A000252B61F7B801C7010E94DA6EA1960FB60C
:1035B000F894DEBF0FBECDBFDF91CF911F910F9169
:1035C000FF90EF90BF90AF909F908F9008956AEA20
:1035D00076E00C94DA6E0F931F93CF93DF93EC0198
:1035E0000E94DA6E8C01CE010E94E71A800F911FB3
:1035F000DF91CF911F910F910895DC01ED91FC9126
:103600000190F081E02D09940C94DA6EDB011496A0
:103610004D915C9115976D917C91DC01ED91FC9140
:103620000280F381E02D09940F931F93CF93DF93D2
:10363000EC010E94061B8C01CE010E94E71A800F4C
:10364000911FDF91CF911F910F910895EF92FF92FB
:103650000F931F93CF93DF938C017B01C0E0D0E0E9
:10366000F701EC0FFD1F6491662361F0D801ED9125
:10367000FC910190F081E02DC8010995892B11F092
:103680002196EECFCE01DF91CF911F910F91FF9048
:10369000EF90089508952F923F924F925F926F920C
:1036A0007F928F929F92AF92BF92CF92DF92EF92D2
:1036B000FF920F931F93CF93DF93CDB7DEB7E097C1
:1036C0000FB6F894DEBF0FBECDBF7C014B014DA7F6
:1036D0002EA72DB73EB738AB2FA71C0137E7231A0B
:1036E0003DEF330AD1017C908C01075B1D4FF8013F
:1036F000138210821582815B9D4F928381830E9489
:103700003B6B5C01D8011196CD90DC901297F601CD
:10371000728261E0872D0E94E41661E0D601129664
:103720008C910E9483160E94CE2AD8011196ED91A9
:10373000FC91129782E5808381E08183C8010E9419
:103740008D6B6701B6EBCB1ABDEFDB0AD601ED91AD
:10375000FC9161E082810E9483162AE0722E8FEF35
:103760000E942F6B7A947110FACFD601ED91FC91E3
:1037700060E082810E94831620E030E0A90160E0D1
:10378000C8010E94A66B813049F00E943B6B8A19E8
:103790009B09813D974080F380E25EC02AEA31E0D8
:1037A00040E050E068E0C8010E94A66B853011F44B
:1037B00081E00DC094E0D92E0E94346BD80114969C
:1037C0008C93DA94D110F8CF8A3A91F482E0F70121
:1037D000E25BFD4F80836701F2EBCF1AFDEFDF0A5A
:1037E000D6018C91823069F0412C512C32010EC0EF
:1037F0000E943B6B8A199B09813D974078F285E2D4
:103800002BC0412C512C612C80E4782E20E030E03C
:10381000A90167E3C8010E94A66BA301920169E2B6
:10382000C8010E94A66B882349F00E943B6B8A194D
:103830009B09813D974050F383E40EC0D6018C91E3
:103840008230F1F420E030E0A9016AE3C8010E946F
:10385000A66B882339F087E3F8018083C8010E94B2
:10386000406BDDC00E94346B807C803C19F483E0A7
:10387000D6018C930E94346B0E94346B0E94346B8F
:10388000C8010E94406BD8011196ED91FC911297EE
:1038900080E5808381E08183F701138302836701E0
:1038A000F2E0CF0ED11C8701075D1D4FC8010E94B9
:1038B000361261E0C6010E94E66C882341F0B60131
:1038C000C8010E941C12882309F4A9C007C060E047
:1038D000C6010E94E66C8111F2CFA1C0D8018C9183
:1038E000807709F49CC01093120E0093110EF10121
:1038F000108162E874E080EC97E00E94261B812F23
:10390000110F990B0E940840D40114960D911C913F
:10391000159721E0200F422F50E0CA010197EDB723
:10392000FEB7E41BF50B0FB6F894FEBF0FBEEDBF5C
:103930004DB75EB74F5F5F4F6A012223A9F00115B3
:10394000110519F4DA011C920FC08017910708F4D1
:103950008C01F40160817181A801C6010E94298C4B
:10396000F601E00FF11F10828701025A1D4F60918E
:10397000110E7091120E22E2A601C8010E943F12A0
:10398000B82E882369F0B7016E5A7D4FCE0101969B
:103990000E94E03F61E0CE0101960E94FE3E48C0D9
:1039A000FDA5FF2309F444C06091110E7091120E21
:1039B00022E6A601C8010E943F12D82E8823C1F139
:1039C00087010E5A1D4FB801CE0101960E94E03FBB
:1039D00062E0CE0101960E94FE3E2EA5222399F0C0
:1039E000D701ED91FC910480F581E02DB801C7016C
:1039F0000995B801CE0101960E94E03F64E0CE0136
:103A000001960E94FE3EB801CE0101960E94E03F61
:103A100061E0CE0101960E94FE3EBD2C09C08FE4FC
:103A200094E00E941A5687E394E00E941A56B12C43
:103A30008B2DEFA5F8A90FB6F894FEBF0FBEEDBF12
:103A4000E0960FB6F894DEBF0FBECDBFDF91CF91E9
:103A50001F910F91FF90EF90DF90CF90BF90AF90AC
:103A60009F908F907F906F905F904F903F902F909E
:103A70000895CF93DF93EC0180EC97E00E944F2FE5
:103A80000E94BC3E8FE00E949A62682F6E7F8FE09A
:103A90000E943362C657DD4F62E088810E94E416BF
:103AA0006AE47BE188810E944C74ECEBF0E0808159
:103AB0008A7B808360E081E10E94831660E080E180
:103AC0000E94831661E081E10E94E41661E080E1DA
:103AD0000E94E41660E081E10E94831660E080E1CC
:103AE0000E948316F894EAE7F0E080818F77808364
:103AF00085B7806685BF8F7D85BFC4E6D0E08881AD
:103B00008FEF8883A5E6B0E08C9181608C9383B7BA
:103B1000816083BF78948895F894888118828C910D
:103B20008E7F8C9383B78E7F83BF808180688083F4
:103B3000789462E081E10E94E41662E080E10E94F4
:103B4000E41684EB97E0DF91CF910C94B216CF93FB
:103B5000DF93EC01C657DD4F62E088810E94E416D6
:103B60006AE47BE188810E944C740E94BC3E83B76A
:103B7000817F846083BFDF91CF910895CF93DF93DE
:103B8000EC010E944F6AC957DD4F48815981ECE32F
:103B9000E49F9001E59F300D112440E050E00E9429
:103BA0003286672B682B692B61F40E944F6A609301
:103BB000810E7093820E8093830E9093840E81E029
:103BC00001C080E0DF91CF910895AF92BF92DF9264
:103BD000EF92FF920F931F93CF93DF93CDB7DEB792
:103BE0002C970FB6F894DEBF0FBECDBF7C018B01C2
:103BF00065E274E0C8010E94261BF701EB57FD4FF8
:103C000060817181C8010E94EB1A62E174E0C80111
:103C10000E94261BB70162587D4FC8010E94141BE9
:103C200060E577E0C8010E94041B65E074E0C8010C
:103C30000E94261B62E577E0C8010E94041BD12C7C
:103C400083E7E81A8DEFF80AD701ED91FC918481A2
:103C5000D81608F04BC060E577E0C8010E94041B4D
:103C6000D701ED91FC91AD2CB12CC501880F991FA6
:103C70000280F381E02DE80FF91F0190F081E02D23
:103C8000848181110CC062817381DB01ED91FC9113
:103C90000680F781E02DCE010196099506C065E505
:103CA00077E0CE0101960E94141ABE016F5F7F4F2C
:103CB000C8010E94061BCE0101960E94D81960E53A
:103CC00077E0C8010E94041BBFEFAB1ABB0AD70103
:103CD000ED91FC91848190E0A816B90629F063E586
:103CE00077E0C8010E94041BD394AECFC8010E94A4
:103CF000E71A60E577E0C8010E94041B66EF73E0F5
:103D0000C8010E94261B62E577E0C8010E94041BDF
:103D1000D12CD701ED91FC918481D816E0F560E5B6
:103D200077E0C8010E94041BD701ED91FC91AD2CF6
:103D3000B12CC501880F991F0280F381E02DE80F97
:103D4000F91F0190F081E02D64857585CE01019603
:103D50000E94141ABE016F5F7F4FC8010E94061BAC
:103D6000CE0101960E94D81960E577E0C8010E9453
:103D7000041BBFEFAB1ABB0AD701ED91FC91848104
:103D800090E0A816B90629F063E577E0C8010E9423
:103D9000041BD394BECFC8010E94E71A60E577E008
:103DA000C8010E94041B69EE73E0C8010E94261B33
:103DB00062E577E0C8010E94041BD12CD701ED9188
:103DC000FC918481D816E0F560E577E0C8010E9497
:103DD000041BD701ED91FC91AD2CB12CC501880FCE
:103DE000991F0280F381E02DE80FF91F0190F08107
:103DF000E02D66857785CE0101960E94141ABE01DA
:103E00006F5F7F4FC8010E94061BCE0101960E9482
:103E1000D81960E577E0C8010E94041BBFEFAB1A18
:103E2000BB0AD701ED91FC91848190E0A816B906F8
:103E300029F063E577E0C8010E94041BD394BECF4C
:103E4000C8010E94E71A60E577E0C8010E94041BE0
:103E50006CED73E0C8010E94261B62E577E0C801A3
:103E60000E94041BD12CD701ED91FC918481D816BE
:103E7000E0F560E577E0C8010E94041BD701ED91F1
:103E8000FC91AD2CB12CC501880F991F0280F381E4
:103E9000E02DE80FF91F0190F081E02D658976890A
:103EA000CE0101960E94141ABE016F5F7F4FC801B8
:103EB0000E94061BCE0101960E94D81960E577E0AA
:103EC000C8010E94041BBFEFAB1ABB0AD701ED91DA
:103ED000FC91848190E0A816B90629F063E577E0AB
:103EE000C8010E94041BD394BECFC8010E94E71AE8
:103EF00067EC73E0CE0107960E94021A6091800E73
:103F0000161634F4062E000C770B655D7F4F05C046
:103F1000662339F0062E000C770BCE0107960E941F
:103F20009C4960E577E0C8010E94041BBE01695FFF
:103F30007F4FC8010E94061B62E577E0C8010E941E
:103F4000041BD12CD701ED91FC918481D81608F087
:103F500042C060E577E0C8010E94041BD701ED91E3
:103F6000FC91AD2CB12CC501880F991F0280F38103
:103F7000E02DE80FF91F0190F081E02D638974892D
:103F8000DB018C91811102C061897289CE01019699
:103F90000E94141ABE016F5F7F4FC8010E94061B6A
:103FA000CE0101960E94D81960E577E0C8010E9411
:103FB000041BBFEFAB1ABB0AD701ED91FC918481C2
:103FC00090E0A816B90629F063E577E0C8010E94E1
:103FD000041BD394B7CFC8010E94E71ACE010796FD
:103FE0000E94D8192C960FB6F894DEBF0FBECDBF35
:103FF000DF91CF911F910F91FF90EF90DF90BF90D5
:10400000AF900895CF93DF93CDB7DEB72E970FB65D
:10401000F894DEBF0FBECDBFAB01BC014058534486
:104020006D467843CE0108960E94782B87E0FE010A
:104030003896DE01119601900D928A95E1F729815B
:104040003A814B815C816D817E818F8190E02E96DB
:104050000FB6F894DEBF0FBECDBFDF91CF910895AC
:10406000AF92BF92CF92DF92FF920F931F93CF93A5
:10407000DF93CDB7DEB72D970FB6F894DEBF0FBE36
:10408000CDBF6C018B016CEA76E0CE0108960E94F0
:10409000141A6091810E7091820E8091830E90911E
:1040A000840E0E94022029833A834B835C836D83B4
:1040B0007E838F83BE01685F7F4FCE0101960E9491
:1040C000042B65E374E0CE0108960E94A718BE0198
:1040D000685F7F4FC8010E94061BF12C83E7C81A56
:1040E0008DEFD80AD601ED91FC918481F81660F528
:1040F000AF2CB12CC501880F991F0280F381E02DF0
:10410000E80FF91F60817181CE0101960E94F2458E
:10411000BE016F5F7F4FC8010E94061BCE01019652
:104120000E94D819BFEFAB1ABB0AD601ED91FC91E2
:10413000848190E0A816B90629F063E374E0C80111
:104140000E94261BF394CECFC8010E94E71ACE012D
:1041500008960E94D8192D960FB6F894DEBF0FBEB0
:10416000CDBFDF91CF911F910F91FF90DF90CF9046
:10417000BF90AF9008950F931F93CF93DF93CDB768
:10418000DEB76F970FB6F894DEBF0FBECDBF8C01C0
:10419000CB01BA010E94022029833A834B835C83BE
:1041A0006D837E838F836CEA76E0C8010E94141AC7
:1041B000B801CE0101960E94042B62EA76E0CE019E
:1041C00008960E94141A6FE877E0CE010E960E94BE
:1041D000141AAE01485F5F4FBE01625F7F4FC80196
:1041E0000E948760CE010E960E94D819CE010896D3
:1041F0000E94D8196091800E062E000C770BCE011C
:104200004A960E941C408091800E98E1980F9F3042
:1042100038F463EC73E0CE014A960E94A7187CC084
:1042200099E0980F9930F0F522E030E041E050E05D
:10423000BE01665E7F4FCE0108960E94291A21E0DA
:1042400030E040E050E0BE01665E7F4FCE01449614
:104250000E94291ABE016C5E7F4FCE010E960E940D
:104260000B1A61EC73E0CE010E960E944019BE015C
:10427000685F7F4F0E944E196DEB73E00E944019FA
:10428000BC01CE014A960E94C119CE010E960E9431
:10429000D819CE0144960E94D819CE0108960E94E2
:1042A000D8193AC0811107C06BEB73E0CE014A9672
:1042B0000E94611931C09FEF980F993080F460E639
:1042C00077E0CE0108960E94141ABE01665E7F4F09
:1042D000CE0108960E944E1967EB73E012C08A5017
:1042E0008F30D0F463E677E0CE0108960E94141A6E
:1042F000BE01665E7F4FCE0108960E944E1963EBA9
:1043000073E00E944019BC01CE014A960E94C11977
:10431000CE0108960E94D819BE01665E7F4FC80183
:104320000E942719CE014A960E94D819C8016F969B
:104330000FB6F894DEBF0FBECDBFDF91CF911F91B6
:104340000F910895EF92FF920F931F93CF93DF93F6
:10435000CDB7DEB762970FB6F894DEBF0FBECDBF04
:104360007C012CE7E21A2DEFF20AF70120812223CB
:1043700009F44AC08C01319660817181CE010D969D
:104380000E94141A65E677E0CE010D960E94181976
:104390000E944F6AAB01BC01CE0101960E94BB2076
:1043A0002AE030E040E050E0BE016F5F7F4FCE0179
:1043B00007960E94291ABE01695F7F4FCE010D96B4
:1043C0000E942719CE0107960E94D819CE010196A6
:1043D0000E94D81967E677E0CE010D960E94181961
:1043E00002581D4FBE01635F7F4FC8010E94C11973
:1043F000F7011082BE01635F7F4FC8010E94C1199F
:10440000CE010D960E94D81962960FB6F894DEBFC1
:104410000FBECDBFDF91CF911F910F91FF90EF9015
:10442000089581E0089580E008950F931F93CF933E
:10443000DF93EC0168EC75E00E946F6000E010E033
:1044400020E030E043E353E066EB75E0CE010E94EC
:10445000597891E0813009F090E0892FDF91CF9178
:104460001F910F9108950F931F93CF93DF93EC014A
:104470006FE875E00E946F6000E010E020E030E03F
:1044800043E353E064E875E0CE010E94597881303F
:1044900061F420E030E043E353E06BE373E0CE01EE
:1044A0000E94597891E0813009F090E0892FDF91E6
:1044B000CF911F910F9108950F931F93CF93DF9387
:1044C000EC016AE775E00E946F6000E010E020E018
:1044D00030E043E353E06BE373E0CE010E94597890
:1044E00063E775E0CE010E946F6020E030E043E3B7
:1044F00053E06BE373E0CE010E9459786AE675E001
:10450000CE010E946F6020E030E043E353E06BE3B4
:1045100073E0CE010E94597861E675E0CE010E94F9
:104520006F6020E030E043E353E06BE373E0CE01E3
:104530000E94597868E575E0CE010E946F6020E026
:1045400030E043E353E06BE373E0CE010E9459781F
:1045500065E575E0CE010E946F6020E030E043E346
:1045600053E06BE373E0CE010E94597891E0813013
:1045700009F090E0892FDF91CF911F910F9108955D
:10458000AF92BF92CF92DF92EF92FF920F931F9361
:10459000CF93DF93EC01E881F9810084F185E02D70
:1045A00040E157E260E070E00995882309F464C0B7
:1045B0006EEA75E0CE010E946F60A12CB12CC12C77
:1045C000D12CE12CF12C03E313E02BE333E040E1A9
:1045D00057E260E070E0CE010E940778813009F078
:1045E0004BC06BEA75E0CE010E946F6000E010E006
:1045F00020E030E043E353E06BE373E0CE010E9440
:10460000597863EA75E0CE010E946F6003E313E01E
:104610002BE333E040E157E260E070E0CE010E941E
:104620000778813049F569E975E0CE010E946F6035
:104630002BE333E040E157E260E070E0CE010E94FE
:1046400007788130C9F468EB7BE080E090E00E945D
:104650003717E881F9810190F081E02D60E070E08A
:10466000CE01DF91CF911F910F91FF90EF90DF90DE
:10467000CF90BF90AF90099480E0DF91CF911F91D0
:104680000F91FF90EF90DF90CF90BF90AF90089583
:104690000F931F93CF93DF93EC018B0161EA76E0D8
:1046A0008A819B810E94041B63ED75E08A819B8156
:1046B0000E94261B41ED55E0B801CE010E945660D4
:1046C0008C819D81DC01ED91FC910680F781E02DCC
:1046D000099560E070E0CB010E94371700E010E020
:1046E00020E030E043E353E06BE373E0CE010E944F
:1046F000597891E0813009F090E0892FDF91CF91D6
:104700001F910F9108954F925F926F927F928F92B7
:104710009F92AF92BF92CF92DF92EF92FF920F9350
:104720001F93CF93DF93EC013B014A012901E881FC
:10473000F98106A4F7A5E02D099569EF76E0CE0191
:104740000E946F6000E010E020E030E043E353E0BF
:104750006BE373E0CE010E945978A30166EE76E028
:10476000CE010E94B86120E030E043E353E06BE308
:1047700073E0CE010E9459788114910499F0D4011C
:104780008C91882379F0A40162ED76E0CE010E943D
:10479000B86120E030E043E353E06BE373E0CE0127
:1047A0000E94597841145104A9F0F20180818823B4
:1047B00089F0A2016FEB76E0CE010E94B86100E0C3
:1047C00010E020E030E043E353E06BE373E0CE0120
:1047D0000E945978A3016DEA76E0CE010E94B8618B
:1047E00000E010E020E030E043E353E06BE373E0EF
:1047F000CE010E94597862EA76E0CE010E946F6095
:10480000A12CB12CC12CD12CE12CF12C03E313E011
:104810002BE333E040E65AEE60E070E0CE010E9408
:10482000077867E976E0CE010E946F602BE333E002
:1048300048E05CE461E070E0CE010E9407786CE83B
:1048400076E0CE010E946F602BE333E040E355E752
:1048500060E070E0CE010E940778813009F0C4C0AA
:1048600063E876E0CE010E946F60A12CB12CC12CD0
:10487000D12CE12CF12C03E313E02BE333E040E6F1
:104880005AEE60E070E0CE010E940778813009F0B6
:10489000ABC069E776E0CE010E946F6000E010E0F7
:1048A00020E030E043E353E06BE373E0CE010E948D
:1048B0005978813009F098C06DE676E0CE010E940B
:1048C0006F6020E030E043E353E06BE373E0CE0140
:1048D0000E945978813009F087C061E676E0CE0108
:1048E0000E946F6020E030E043E353E06BE373E04D
:1048F000CE010E945978813009F076C061EA76E0F5
:104900008A819B810E94041B69E576E08A819B81F4
:104910000E94261BB3018A819B810E94041B65E5CE
:1049200076E08A819B810E94261BB4018A819B814B
:104930000E94041B61E576E08A819B810E94261B10
:104940004FE456E0B201CE010E9456608C819D81F9
:10495000DC01ED91FC910680F781E02D099560E086
:1049600070E0CB010E94371703E313E02BE333E041
:1049700040E65AEE60E070E0CE010E940778813098
:1049800099F568E476E0CE010E946F602BE333E096
:1049900040E65AEE60E070E0CE010E940778813078
:1049A00019F56EE376E0CE010E946F602BE333E0F1
:1049B00040E157E260E070E0CE010E94077881306C
:1049C00099F461E276E0CE010E946F6000E010E0B1
:1049D00020E030E043E353E06BE373E0CE010E945C
:1049E000597891E0813009F090E0892FDF91CF91E3
:1049F0001F910F91FF90EF90DF90CF90BF90AF90FD
:104A00009F908F907F906F905F904F9008954F92FE
:104A10005F926F927F92AF92BF92CF92DF92EF92AE
:104A2000FF920F931F93CF93DF9300D000D000D05D
:104A3000CDB7DEB79E838D8349835A836B837C8396
:104A40000E9471172B013C010E947117DC01CB0100
:104A500084199509A609B70929813A814B815C819E
:104A600082179307A407B50708F563E075E08D8109
:104A70009E810E946F60A12CB12CC12CD12CE12C05
:104A8000F12C03E313E02BE333E048EC50E060E06B
:104A900070E08D819E810E940778813049F064E644
:104AA00070E080E090E00E943717CECF80E001C038
:104AB00081E026960FB6F894DEBF0FBECDBFDF9122
:104AC000CF911F910F91FF90EF90DF90CF90BF900B
:104AD000AF907F906F905F904F9008958F929F92CC
:104AE000AF92BF92FF920F931F93CF93DF93EC018E
:104AF000E881F9810084F185E02D40E157E260E032
:104B000070E00995F82E811102C0F12C60C069EFA8
:104B100074E0CE010E946F6000E010E020E030E021
:104B200043E353E06BE373E0CE010E94597866EFF4
:104B300074E0CE010E946F6020E030E043E353E078
:104B40006BE373E0CE010E9459788130F1F60E9448
:104B500071174B015C010E947117DC01CB018819B0
:104B60009909AA09BB0980319742A105B10578F5D9
:104B70006FEE74E0CE010E946F6000E010E020E074
:104B800030E043E353E066EE74E0CE010E945978D2
:104B9000813039F068EE73E080E090E00E943717D2
:104BA000DACF03EC14E020ED34E048ED54E060EEA1
:104BB00074E0CE010E94597800E010E020E030E07F
:104BC00043E353E06BE373E0CE010E9459788F2DED
:104BD000DF91CF911F910F91FF90BF90AF909F9069
:104BE0008F900895CF92DF92EF92FF92CF93DF9351
:104BF000EC016A017B0161EA76E08A819B810E9477
:104C0000041B6DEF74E08A819B810E94261B2AE0C1
:104C1000B701A6018A819B810E949E1A6AEA76E00A
:104C20008A819B810E94041B8C819D81DC01ED9116
:104C3000FC910680F781E02D099560E070E0CB01E2
:104C4000DF91CF91FF90EF90DF90CF900C943717CA
:104C5000AF92BF92CF92DF92EF92FF920F931F938A
:104C6000CF93DF9300D000D000D0CDB7DEB75C018A
:104C70006AE176E00E946F6000E010E020E030E042
:104C800043E353E061E176E0C5010E945978813049
:104C900021F56CE2C5010E945575F50164817581AD
:104CA0004AE0CE0101960E940776CE0101960E944D
:104CB000C7176B017C01CE0101960E94D81920E034
:104CC00030E043E353E06BE373E0C5010E945978A1
:104CD00096012130310549F002C024E030E081E046
:104CE0002530310519F080E001C081E026960FB62D
:104CF000F894DEBF0FBECDBFDF91CF911F910F9112
:104D0000FF90EF90DF90CF90BF90AF900895AF925B
:104D1000BF92CF92DF92EF92FF920F931F93CF93A8
:104D2000DF9300D000D000D0CDB7DEB75C016CE0DF
:104D300076E00E946F6000E010E020E030E043E3A6
:104D400053E064E076E0C5010E9459788130E9F4CF
:104D5000F501648175814CE2CE0101960E940776CF
:104D6000CE0101960E94C7176B017C01CE0101960E
:104D70000E94D81920E030E043E353E06BE373E096
:104D8000C5010E945978C60102C083E690E02696CC
:104D90000FB6F894DEBF0FBECDBFDF91CF911F914C
:104DA0000F91FF90EF90DF90CF90BF90AF9008955C
:104DB0006F927F928F929F92AF92BF92CF92DF922B
:104DC000EF92FF920F931F93CF93DF9300D000D009
:104DD00000D0CDB7DEB74C016C01F12CD601169690
:104DE000AD90BC901797A114B10409F470C0F501FF
:104DF0008689882309F46BC0168A4F2D68E475E014
:104E0000C4010E94C41400E010E020E030E043E35D
:104E100053E06DE375E0C4010E945978813051F18F
:104E2000D60116966D907C9017974F2D61E375E033
:104E3000C4010E94C41404E015E02FE035E04AE10B
:104E400055E064E275E0C4010E945978E82E00E064
:104E500010E020E030E043E353E06BE373E0C40193
:104E60000E94597881E0E81280E0F301858B612C83
:104E7000712C2AC06CE2C4010E9455756CE2C40119
:104E80000E945575D40114966D917C9115974AE056
:104E9000CE0101960E940776CE0101960E94C717A7
:104EA0003B01CE0101960E94D81900E010E020E0FD
:104EB00030E043E353E06BE373E0C4010E945978B0
:104EC0006114710409F4ACCFF501708A6786F2E0D1
:104ED000CF0ED11CF39485E0F81280CFD401149644
:104EE0008D919C911597DC01ED91FC910084F185E9
:104EF000E02D0995892B91F0A12CB12CC12CD12C3E
:104F0000E12CF12C00E010E020E030E04AE050E03D
:104F100060E070E0C4010E940778E0CF26960FB6EB
:104F2000F894DEBF0FBECDBFDF91CF911F910F91DF
:104F3000FF90EF90DF90CF90BF90AF909F908F90B9
:104F40007F906F900895CF92DF92EF92FF920F9330
:104F50001F93CF93DF9300D000D000D0CDB7DEB742
:104F60006C017B016DEF75E0C7010E946F6000E08E
:104F700010E020E030E043E353E064EF75E0C70168
:104F80000E945978813031F06CEA76E0C6010E94C7
:104F9000141A21C062E2C7010E945575F7016481AD
:104FA000758142E2CE0101960E94077600E010E092
:104FB00020E030E043E353E06BE373E0C7010E947D
:104FC0005978BE016F5F7F4FC6010E94DD19CE0187
:104FD00001960E94D819C60126960FB6F894DEBF36
:104FE0000FBECDBFDF91CF911F910F91FF90EF903A
:104FF000DF90CF900895CF92DF92EF92FF920F93C0
:105000001F93CF93DF9300D000D000D0CDB7DEB791
:105010006C017B016FEE75E0C7010E946F6000E0DC
:1050200010E020E030E043E353E06CEE75E0C701B0
:105030000E945978813031F06CEA76E0C6010E9416
:10504000141A21C0F701648175814AE0CE010196EE
:105050000E94077600E010E020E030E043E353E0F8
:105060006BE373E0C7010E945978CE0101960E945C
:10507000D217BE016F5F7F4FC6010E94DD19CE01BE
:1050800001960E94D819C60126960FB6F894DEBF85
:105090000FBECDBFDF91CF911F910F91FF90EF9089
:1050A000DF90CF900895CF92DF92EF92FF920F930F
:1050B0001F93CF93DF9300D000D000D0CDB7DEB7E1
:1050C0006C017B0165EE75E0C7010E946F6000E036
:1050D00010E020E030E043E353E06BED75E0C70102
:1050E0000E945978813031F06CEA76E0C6010E9466
:1050F000141A21C0F701648175814AE0CE0101963E
:105100000E94077600E010E020E030E043E353E047
:105110006BE373E0C7010E945978CE0101960E94AB
:10512000D217BE016F5F7F4FC6010E94DD19CE010D
:1051300001960E94D819C60126960FB6F894DEBFD4
:105140000FBECDBFDF91CF911F910F91FF90EF90D8
:10515000DF90CF9008954F925F926F927F928F92DF
:105160009F92AF92BF92CF92DF92EF92FF920F93F6
:105170001F93CF93DF93CDB7DEB762970FB6F89446
:10518000DEBF0FBECDBF3C012B0162E875E0C2015E
:105190000E946F606CEA76E0CE010D960E94141AB0
:1051A000812C912CA12CB12CC12CD12C83E3E82E85
:1051B00083E0F82E0BE313E09E01235F3F4F48EEA0
:1051C00053E060E070E0C2010E942F766CEA76E066
:1051D000813021F0C3010E94141A44C0CE01079609
:1051E0000E94141A66EA76E0CE0101960E94141A13
:1051F000AE01495F5F4FBE016F5F7F4FCE010D96DD
:105200000E948760CE0101960E94D819CE010796B0
:105210000E94D8196FE877E0CE0107960E94141A11
:105220006AEA76E0CE0101960E94141AAE01495F47
:105230005F4FBE016F5F7F4FCE010D960E9487606A
:10524000CE0101960E94D819CE0107960E94D81966
:10525000CE010D960E94D217BE01635F7F4FC3013E
:105260000E94DD19CE010D960E94D819C3016296E5
:105270000FB6F894DEBF0FBECDBFDF91CF911F9167
:105280000F91FF90EF90DF90CF90BF90AF909F90E5
:105290008F907F906F905F904F900895CF93DF93A2
:1052A000EC016CE677E00E94141ACE01DF91CF91F9
:1052B000089585ED8093BC008091BC0084FDFCCFF7
:1052C0001092CD0E089540915B0E262F30E0240FF2
:1052D000311D21323105DCF42091CD0E2430C9F48A
:1052E000FC0180E090E0861758F430915B0E21912C
:1052F000DC01A55CB14FA30FB11D2C930196F3CF38
:1053000080915B0E680F60935B0E80E0089581E0F2
:10531000089582E00895089508950895E091860E15
:105320008091850EE81730F4F0E0E957F14F808165
:1053300090E008958FEF9FEF08959091860E8091F1
:10534000850E981750F4E92FF0E0E957F14F2081CE
:1053500030E09F5F9093860E02C02FEF3FEFC901B0
:1053600008958091850E90E02091860E821B910910
:105370000895CF92DF92EF92FF920F931F93CF93F6
:10538000DF937C01CB018A0120913A0E222389F020
:10539000EB016B01C40ED51ECC15DD0569F06991DA
:1053A000D701ED91FC910190F081E02DC7010995A5
:1053B000F3CF642F0E946329C801DF91CF911F9121
:1053C0000F91FF90EF90DF90CF900895CF93DF93F0
:1053D0001F92CDB7DEB7698320913A0E2223D1F018
:1053E0002091130E203240F021E030E0FC013383A5
:1053F000228380E090E015C08091140EE82FF0E049
:10540000E65EF14F998190838F5F8093140E8093B5
:10541000130E05C061E0CE0101960E94632981E070
:1054200090E00F90DF91CF910895FC019081018071
:10543000F281E02DF8948181892B81832281892F4B
:10544000809528232283A2E0B0E01197F1F7218113
:1054500082238183A0E1B0E01197F1F780817894F5
:10546000E6E6F0E03197F1F7982381E009F480E077
:105470000895FC0190810180F281E02D892F8095B3
:1054800060FF12C0F8942281822382838181892B5C
:105490008183A0E1B0E01197F1F78281982B92838C
:1054A00078948AE690E011C0F89422818223828366
:1054B0008181892B8183AEE7B0E01197F1F782817A
:1054C000982B9283789486E090E00197F1F7089505
:1054D000DF92EF92FF920F931F93CF93DF93EC0134
:1054E000D62EE42E08E010E0FF24F39461E08D2D29
:1054F0008F2109F460E0CE010E94392AFF0C01508F
:105500001109A1F7E11010C0F894E981FA819181A5
:105510008881809589238183E981FA8192818881BC
:105520008095892382837894DF91CF911F910F9189
:10553000FF90EF90DF900895DC012C911196ED9192
:10554000FC911297F8948181922F90958923818301
:1055500078948DE7815009F130813223D9F3F894A2
:105560008281892382838181822B81837894ACEB31
:10557000B3E01197F1F7F89481819823918388E83B
:1055800090E00197F1F78081282381E009F080E025
:105590007894E0E3F3E03197F1F70895CF93CFB734
:1055A000F89480917E0E811127C0E2E3F2E08491AD
:1055B000E2E5F2E09491E82FF0E0EE0FFF1FEF5DDF
:1055C000F84FA591B491EC91E92321F461E08CE0CE
:1055D0000E94831661E08CE00E94E4168CB5806125
:1055E0008CBD8CB580648CBD61E08FE00E94E416B8
:1055F00061E08DE00E94E41680917E0E8F5F8093C3
:105600007E0ECFBFCF910895EF92FF920F931F931D
:10561000CF93DF938C01EB01FC01608170E060535C
:10562000784FCE010E9448406DE2CE010E940519DC
:10563000F801E180F12CFAE0EF16F10420F460E3C8
:10564000CE010E940519B701CE010E9448406DE2CB
:10565000CE010E940519F801E280F12CFAE0EF1664
:10566000F10420F460E3CE010E940519B701CE01D8
:105670000E94484060E2CE010E940519F801E380D3
:10568000F12CFAE0EF16F10420F460E3CE010E9461
:105690000519B701CE010E9448406AE3CE010E947D
:1056A0000519F801E480F12CFAE0EF16F10420F47A
:1056B00060E3CE010E940519B701CE010E94484067
:1056C0006AE3CE010E940519F801058110E00A3055
:1056D000110520F460E3CE010E940519B801CE0146
:1056E000DF91CF911F910F91FF90EF900C94484064
:1056F0008F929F92AF92BF92CF92DF92EF92FF92E2
:105700000F931F93CF93DF93EC016A017B014CE36E
:10571000842E912CA12CB12CC701B601A5019401B6
:105720000E9454866D83CA01B901A50194010E94AB
:1057300054866C83C701B60120E13EE040E050E0B2
:105740000E945486CA01B90128E130E040E050E0EF
:105750000E9454866B83C701B60120E831E541E021
:1057600050E00E94548618828881682F637041E05F
:1057700050E011F040E050E0FA01E459FE4FE2172A
:10578000F30744F443595E4F241B350BE1E0E80F67
:10579000E883EACF91E099839981092F10E0F8011D
:1057A000EC5EF84FE491611103C0923009F4EF5FB1
:1057B000F0E02E173F0724F02E1B3F0B9F5FEBCF2F
:1057C0002F5F2A83E82FF0E0E053F84F41E050E0EC
:1057D000933010F040E050E0E41BF50B7F01F594AE
:1057E000E794F594E794EE0EFF1ECF016CE97FEF8E
:1057F0000E941E86E60EF71ECF0160E971E00E944E
:105800001E86C701860F971F000F111FF801ED5B61
:10581000FC4F40815181840F951F820F911D67E0DD
:1058200070E00E941E868F5F8E83DF91CF911F9163
:105830000F91FF90EF90DF90CF90BF90AF909F902F
:105840008F9008951F920F920FB60F9211240BB6EE
:105850000F922F933F934F935F936F937F938F9309
:105860009F93AF93BF93EF93FF938091B900887F8D
:10587000803609F49CC068F5883209F45BC090F466
:10588000803109F454C038F4882309F4F6C0883014
:1058900009F44DC0F6C0883109F44CC0803209F4D7
:1058A0005DC0EFC0803409F468C048F4803309F467
:1058B00055C0883309F0E5C08093CB0ED8C0803541
:1058C00009F44FC0883509F45DC0883409F0D9C0A7
:1058D000D6C0883909F4C7C0A8F4883709F467C06E
:1058E00038F4883609F463C0803709F460C0C9C051
:1058F000883809F4B8C0803909F45FC0803809F0ED
:10590000C0C05BC0803B09F486C038F4803A09F41B
:1059100066C0883A09F47FC0B4C0803C09F4A7C0CF
:10592000883C09F4A4C0883B09F48AC0AAC08091CD
:10593000C80E10C09091CA0E8091C90E981770F5CC
:10594000E091CA0E81E08E0F8093CA0EF0E0E95517
:10595000F14F80818093BB0085EC86C08093CB0E95
:105960008EC0E091CA0E81E08E0F8093CA0E8091A6
:10597000BB00F0E0E955F14F80839091CA0E809111
:10598000C90E6EC0E091CA0E81E08E0F8093CA0EE0
:105990008091BB00F0E0E955F14F80838091CC0EFF
:1059A00081116DC081E08093C70E84EA61C083E0FD
:1059B0008093CD0E10927D0ECFCF80917D0E8032E0
:1059C00008F051C0E0917D0E81E08E0F80937D0E36
:1059D0008091BB00F0E0E35AF14F8083BDCF85ECAE
:1059E0008093BC001092CD0E80917D0E803230F4F9
:1059F000E0917D0EF0E0E35AF14F108260917D0E50
:105A000070E0E091170EF091180E8DE59EE009957B
:105A100010927D0E36C084E08093CD0E10925C0E05
:105A200010925B0EE091150EF091160E0995809183
:105A30005B0E811105C081E080935B0E10923B0EDE
:105A4000E0915C0E81E08E0F80935C0EF0E0E55CEF
:105A5000F14F80818093BB0090915C0E80915B0E32
:105A6000981708F479CF85E88093BC000AC085ECCC
:105A70008093BC001092CD0E04C01092CB0E0E94F9
:105A80005929FF91EF91BF91AF919F918F917F9194
:105A90006F915F914F913F912F910F900BBE0F909F
:105AA0000FBE0F901F9018953091130E313208F0F1
:105AB0004BC08091CD0E8111FCCF9091190E22E048
:105AC0002093CD0E21E02093CC0E2FEF2093CB0E10
:105AD0001092CA0E3093C90EEAE1FEE0A7EABEE0DA
